{
  "contractName": "Certification",
  "abi": [
    {
      "anonymous": false,
      "inputs": [
        {
          "indexed": true,
          "internalType": "bytes32",
          "name": "_certificateId",
          "type": "bytes32"
        }
      ],
      "name": "CertificateGenerated",
      "type": "event"
    },
    {
      "anonymous": false,
      "inputs": [
        {
          "indexed": true,
          "internalType": "address",
          "name": "previousOwner",
          "type": "address"
        },
        {
          "indexed": true,
          "internalType": "address",
          "name": "newOwner",
          "type": "address"
        }
      ],
      "name": "OwnershipTransferred",
      "type": "event"
    },
    {
      "inputs": [
        {
          "internalType": "bytes32",
          "name": "",
          "type": "bytes32"
        }
      ],
      "name": "certificates",
      "outputs": [
        {
          "internalType": "string",
          "name": "candidate_name",
          "type": "string"
        },
        {
          "internalType": "string",
          "name": "org_name",
          "type": "string"
        },
        {
          "internalType": "string",
          "name": "course_name",
          "type": "string"
        },
        {
          "internalType": "uint256",
          "name": "expiration_date",
          "type": "uint256"
        }
      ],
      "stateMutability": "view",
      "type": "function",
      "constant": true
    },
    {
      "inputs": [],
      "name": "owner",
      "outputs": [
        {
          "internalType": "address",
          "name": "",
          "type": "address"
        }
      ],
      "stateMutability": "view",
      "type": "function",
      "constant": true
    },
    {
      "inputs": [],
      "name": "renounceOwnership",
      "outputs": [],
      "stateMutability": "nonpayable",
      "type": "function"
    },
    {
      "inputs": [
        {
          "internalType": "address",
          "name": "newOwner",
          "type": "address"
        }
      ],
      "name": "transferOwnership",
      "outputs": [],
      "stateMutability": "nonpayable",
      "type": "function"
    },
    {
      "inputs": [
        {
          "internalType": "bytes32",
          "name": "_certificateId",
          "type": "bytes32"
        },
        {
          "internalType": "string",
          "name": "_candidate_name",
          "type": "string"
        },
        {
          "internalType": "string",
          "name": "_org_name",
          "type": "string"
        },
        {
          "internalType": "string",
          "name": "_course_name",
          "type": "string"
        },
        {
          "internalType": "uint256",
          "name": "_expiration_date",
          "type": "uint256"
        }
      ],
      "name": "generateCertificate",
      "outputs": [],
      "stateMutability": "nonpayable",
      "type": "function"
    },
    {
      "inputs": [
        {
          "internalType": "bytes32",
          "name": "_certificateId",
          "type": "bytes32"
        }
      ],
      "name": "getData",
      "outputs": [
        {
          "internalType": "string",
          "name": "candidate_name",
          "type": "string"
        },
        {
          "internalType": "string",
          "name": "org_name",
          "type": "string"
        },
        {
          "internalType": "string",
          "name": "course_name",
          "type": "string"
        },
        {
          "internalType": "uint256",
          "name": "expiration_date",
          "type": "uint256"
        }
      ],
      "stateMutability": "view",
      "type": "function",
      "constant": true
    }
  ],
  "bytecode": "0x608060405234801561000f575f80fd5b506100193361001e565b61006d565b5f80546001600160a01b038381166001600160a01b0319831681178455604051919092169283917f8be0079c531659141344cd1fd0a4f28419497f9722a3daafe3b4186f6b6457e09190a35050565b610aa08061007a5f395ff3fe608060405234801561000f575f80fd5b5060043610610060575f3560e01c806354f6127f14610064578063715018a614610090578063742f06881461009a5780638da5cb5b146100ad5780639e9796c5146100c7578063f2fde38b146100da575b5f80fd5b610077610072366004610727565b6100ed565b6040516100879493929190610781565b60405180910390f35b61009861030f565b005b6100776100a8366004610727565b610322565b5f546040516001600160a01b039091168152602001610087565b6100986100d5366004610868565b6104db565b6100986100e83660046108fb565b6105f7565b5f81815260016020526040812060038101546060928392839282036101515760405162461bcd60e51b815260206004820152601560248201527410d95c9d1a599a58d85d19481b9bdd08199bdd5b99605a1b60448201526064015b60405180910390fd5b805f018160010182600201836003015483805461016d90610928565b80601f016020809104026020016040519081016040528092919081815260200182805461019990610928565b80156101e45780601f106101bb576101008083540402835291602001916101e4565b820191905f5260205f20905b8154815290600101906020018083116101c757829003601f168201915b505050505093508280546101f790610928565b80601f016020809104026020016040519081016040528092919081815260200182805461022390610928565b801561026e5780601f106102455761010080835404028352916020019161026e565b820191905f5260205f20905b81548152906001019060200180831161025157829003601f168201915b5050505050925081805461028190610928565b80601f01602080910402602001604051908101604052809291908181526020018280546102ad90610928565b80156102f85780601f106102cf576101008083540402835291602001916102f8565b820191905f5260205f20905b8154815290600101906020018083116102db57829003601f168201915b505050505091509450945094509450509193509193565b610317610670565b6103205f6106d8565b565b60016020525f908152604090208054819061033c90610928565b80601f016020809104026020016040519081016040528092919081815260200182805461036890610928565b80156103b35780601f1061038a576101008083540402835291602001916103b3565b820191905f5260205f20905b81548152906001019060200180831161039657829003601f168201915b5050505050908060010180546103c890610928565b80601f01602080910402602001604051908101604052809291908181526020018280546103f490610928565b801561043f5780601f106104165761010080835404028352916020019161043f565b820191905f5260205f20905b81548152906001019060200180831161042257829003601f168201915b50505050509080600201805461045490610928565b80601f016020809104026020016040519081016040528092919081815260200182805461048090610928565b80156104cb5780601f106104a2576101008083540402835291602001916104cb565b820191905f5260205f20905b8154815290600101906020018083116104ae57829003601f168201915b5050505050908060030154905084565b6104e3610670565b5f85815260016020526040902060030154156105515760405162461bcd60e51b815260206004820152602760248201527f43657274696669636174652077697468207468697320494420616c72656164796044820152662065786973747360c81b6064820152608401610148565b604080516080810182528581526020808201869052818301859052606082018490525f8881526001909152919091208151819061058e90826109ae565b50602082015160018201906105a390826109ae565b50604082015160028201906105b890826109ae565b506060919091015160039091015560405185907fe011460b1cc08153fb7209e5dce874803c9381e220c37acb627ce15a6627e06a905f90a25050505050565b6105ff610670565b6001600160a01b0381166106645760405162461bcd60e51b815260206004820152602660248201527f4f776e61626c653a206e6577206f776e657220697320746865207a65726f206160448201526564647265737360d01b6064820152608401610148565b61066d816106d8565b50565b336106825f546001600160a01b031690565b6001600160a01b0316146103205760405162461bcd60e51b815260206004820181905260248201527f4f776e61626c653a2063616c6c6572206973206e6f7420746865206f776e65726044820152606401610148565b5f80546001600160a01b038381166001600160a01b0319831681178455604051919092169283917f8be0079c531659141344cd1fd0a4f28419497f9722a3daafe3b4186f6b6457e09190a35050565b5f60208284031215610737575f80fd5b5035919050565b5f81518084525f5b8181101561076257602081850181015186830182015201610746565b505f602082860101526020601f19601f83011685010191505092915050565b608081525f610793608083018761073e565b82810360208401526107a5818761073e565b905082810360408401526107b9818661073e565b91505082606083015295945050505050565b634e487b7160e01b5f52604160045260245ffd5b5f82601f8301126107ee575f80fd5b813567ffffffffffffffff80821115610809576108096107cb565b604051601f8301601f19908116603f01168101908282118183101715610831576108316107cb565b81604052838152866020858801011115610849575f80fd5b836020870160208301375f602085830101528094505050505092915050565b5f805f805f60a0868803121561087c575f80fd5b85359450602086013567ffffffffffffffff8082111561089a575f80fd5b6108a689838a016107df565b955060408801359150808211156108bb575f80fd5b6108c789838a016107df565b945060608801359150808211156108dc575f80fd5b506108e9888289016107df565b95989497509295608001359392505050565b5f6020828403121561090b575f80fd5b81356001600160a01b0381168114610921575f80fd5b9392505050565b600181811c9082168061093c57607f821691505b60208210810361095a57634e487b7160e01b5f52602260045260245ffd5b50919050565b601f8211156109a9575f81815260208120601f850160051c810160208610156109865750805b601f850160051c820191505b818110156109a557828155600101610992565b5050505b505050565b815167ffffffffffffffff8111156109c8576109c86107cb565b6109dc816109d68454610928565b84610960565b602080601f831160018114610a0f575f84156109f85750858301515b5f19600386901b1c1916600185901b1785556109a5565b5f85815260208120601f198616915b82811015610a3d57888601518255948401946001909101908401610a1e565b5085821015610a5a57878501515f19600388901b60f8161c191681555b5050505050600190811b0190555056fea264697066735822122049ddd8f142eb8f798dbff75709c778978e07af621b25c567cfaa8ca81e172e1964736f6c63430008140033",
  "immutableReferences": {},
  "source": "// SPDX-License-Identifier: MIT\r\npragma solidity ^0.8.20;\r\n\r\n// Import the Ownable contract\r\nimport \"./Ownable.sol\";\r\n\r\n/**\r\n * @title CertificateLedger\r\n * @notice Issues and verifies certificates, restricted by an owner.\r\n */\r\ncontract Certification is Ownable { // Inherit from Ownable\r\n\r\n    struct Certificate {\r\n        string candidate_name;\r\n        string org_name;\r\n        string course_name;\r\n        uint256 expiration_date;\r\n    }\r\n\r\n    mapping(bytes32 => Certificate) public certificates;\r\n\r\n    event CertificateGenerated(bytes32 indexed _certificateId);\r\n\r\n    /**\r\n     * @notice Generates a new certificate.\r\n     * @dev Can only be called by the contract owner (your backend server).\r\n     * @param _certificateId The keccak256 hash of the unique certificate ID.\r\n     * ...\r\n     */\r\n    function generateCertificate(\r\n        bytes32 _certificateId,\r\n        string memory _candidate_name,\r\n        string memory _org_name,\r\n        string memory _course_name,\r\n        uint256 _expiration_date\r\n    ) public onlyOwner { // <-- ADD THIS MODIFIER\r\n        \r\n        require(certificates[_certificateId].expiration_date == 0, \"Certificate with this ID already exists\");\r\n\r\n        certificates[_certificateId] = Certificate(\r\n            _candidate_name,\r\n            _org_name,\r\n            _course_name,\r\n            _expiration_date\r\n        );\r\n\r\n        emit CertificateGenerated(_certificateId);\r\n    }\r\n\r\n    /**\r\n     * @notice Retrieves certificate data using its keccak256 hash ID.\r\n     * @dev This is a public view function, anyone can call it for free.\r\n     * @param _certificateId The keccak256 hash of the unique certificate ID.\r\n     * ...\r\n     */\r\n    function getData(bytes32 _certificateId)\r\n        public\r\n        view\r\n        returns (\r\n            string memory candidate_name,\r\n            string memory org_name,\r\n            string memory course_name,\r\n            uint256 expiration_date\r\n        )\r\n    {\r\n        Certificate storage cert = certificates[_certificateId];\r\n        require(cert.expiration_date != 0, \"Certificate not found\");\r\n\r\n        return (\r\n            cert.candidate_name,\r\n            cert.org_name,\r\n            cert.course_name,\r\n            cert.expiration_date\r\n        );\r\n    }\r\n}",
  "sourcePath": "C:\\Users\\uWu\\Downloads\\certificate_proj\\server\\chain\\contracts\\certificate.sol",
  "compiler": {
    "name": "solc",
    "version": "0.8.20+commit.a1b79de6.Emscripten.clang"
  },
  "schemaVersion": "3.4.16",
  "updatedAt": "2025-10-28T16:02:38.567Z",
  "networkType": "ethereum",
  "devdoc": {
    "kind": "dev",
    "methods": {
      "generateCertificate(bytes32,string,string,string,uint256)": {
        "details": "Can only be called by the contract owner (your backend server).",
        "params": {
          "_certificateId": "The keccak256 hash of the unique certificate ID. ..."
        }
      },
      "getData(bytes32)": {
        "details": "This is a public view function, anyone can call it for free.",
        "params": {
          "_certificateId": "The keccak256 hash of the unique certificate ID. ..."
        }
      },
      "owner()": {
        "details": "Returns the address of the current owner."
      },
      "renounceOwnership()": {
        "details": "Leaves the contract without owner. It will not be possible to call `onlyOwner` functions anymore. Can only be called by the current owner. NOTE: Renouncing ownership will leave the contract without an owner, thereby disabling any functionality accessible only to the owner."
      },
      "transferOwnership(address)": {
        "details": "Transfers ownership of the contract to a new account (`newOwner`). Can only be called by the current owner."
      }
    },
    "title": "CertificateLedger",
    "version": 1
  },
  "userdoc": {
    "kind": "user",
    "methods": {
      "generateCertificate(bytes32,string,string,string,uint256)": {
        "notice": "Generates a new certificate."
      },
      "getData(bytes32)": {
        "notice": "Retrieves certificate data using its keccak256 hash ID."
      }
    },
    "notice": "Issues and verifies certificates, restricted by an owner.",
    "version": 1
  }
}